:10000000F9C0000016C1000014C1000012C10000B8
:1000100010C100000EC100000CC100000AC10000A8
:1000200008C1000006C1000004C1000002C10000B8
:1000300000C10000FEC00000FCC00000FAC00000CB
:10004000F8C00000BFC10000F4C00000F2C0000012
:10005000F0C00000EEC00000ECC000006FC2000065
:10006000E8C00000E6C00000E4C00000E2C00000FC
:10007000E0C00000DEC00000DCC00000DAC000000C
:10008000CDC10000D6C00000D4C00000D2C0000026
:10009000D0C00000CEC00000CCC00000CAC000002C
:1000A000C8C00000C6C00000E5C10000C2C000001A
:1000B000C0C00000BEC00000BCC0000007C20000FD
:1000C000B8C00000B6C00000B4C00000B2C000005C
:1000D000B0C00000AEC00000ACC00000AAC000006C
:1000E000A8C000006403670356035A0360039E031D
:1000F0006B036F03750379037D03830387038B030E
:100100009E0391039503990300000A0B02090C0D4D
:100110000E080703040100000000000000000000BA
:1001200000000000000000000000000000000000CF
:10013000000000001211100000000000000000008C
:1001400000000000000000000000000000000102AC
:1001500010202008081020401020408002010201D9
:100160000804020101020408102040808040201091
:1001700008040201800402018040201008040201EA
:100180000804020101020408102040800102040852
:10019000102040800505050507050808080802022B
:1001A00002020A0A08080404040401010101010111
:1001B00001010303030303030303040707070C0CF4
:1001C0000C0C0C0C0C0C02020202060606060606BB
:1001D00006060B0B0B0B0B0B0B0B00002200250074
:1001E00028002B002E003100340002010000050120
:1001F00008010B0111241FBECFEFD1E2DEBFCDBF3E
:1002000000E00CBF22E0A0E0B2E001C01D92AE39D8
:10021000B207E1F712E0A0E0B2E0EEEAF7E000E0BA
:100220000BBF02C007900D92A030B107D9F77BD168
:10023000BCC2E6CE08950895CF92DF92EF92FF926E
:100240000F931F93CF93DF937B016A01082F10E078
:10025000E801CF5FDD4F888187FF04C0FB01118279
:10026000108224C08CE0809F9001819F300D11246A
:100270008881A901480F511D87FD5A958091000280
:1002800090E04817590794F48881A901480F511D3F
:1002900087FD5A95CA01FA01EE0FFF1F8E0F9F1FAF
:1002A000FC01EB5FFD4F808186FD19C088818F5F67
:1002B00088838CE0809F9001819F300D112488817C
:1002C000A901480F511D87FD5A958091000290E0C9
:1002D00048175907B4F488818C303CF112C08881EA
:1002E000280F311D87FD3A95F901EE0FFF1F2E0FE4
:1002F0003F1FF901EB5FFD4F808160E08F731FD2DC
:10030000D5CFF70180819181049680349C4918F4FF
:1003100080E49CE904C0F701808191810496F60194
:10032000918380838FEF888344C0F701408151819E
:100330008881B901680F711D87FD7A95CB01FB019A
:10034000EE0FFF1F8E0F9F1FFC01EB5FFD4F8181A2
:100350009281840F951FF601918380838881A90182
:10036000480F511D87FD5A95CA01FA01EE0FFF1F74
:100370008E0F9F1FFC01EB5FFD4F808186FF19C030
:100380008881280F311D87FD3A95F901EE0FFF1F77
:100390002E0F3F1FF901EB5FFD4F808161E08F73EE
:1003A000DF91CF911F910F91FF90EF90DF90CF9051
:1003B000C6C1DF91CF911F910F91FF90EF90DF9019
:1003C000CF9008951F920F920FB60F9211240BB683
:1003D0000F922F933F934F935F936F937F938F93DE
:1003E0009F93AF93BF93EF93FF9348E850E064E887
:1003F00070E081E021DFFF91EF91BF91AF919F917C
:100400008F917F916F915F914F913F912F910F90BD
:100410000BBE0F900FBE0F901F9018951F920F925A
:100420000FB60F9211240BB60F922F933F934F9359
:100430005F936F937F938F939F93AF93BF93EF934C
:10044000FF9348E950E064E970E082E0F5DEFF9157
:10045000EF91BF91AF919F918F917F916F915F913C
:100460004F913F912F910F900BBE0F900FBE0F90A9
:100470001F9018951F920F920FB60F9211240BB672
:100480000F922F933F934F935F936F937F938F932D
:100490009F93AF93BF93EF93FF9348EA50E064EAD2
:1004A00070E083E0C9DEFF91EF91BF91AF919F9122
:1004B0008F917F916F915F914F913F912F910F900D
:1004C0000BBE0F900FBE0F901F9018951F920F92AA
:1004D0000FB60F9211240BB60F922F933F934F93A9
:1004E0005F936F937F938F939F93AF93BF93EF939C
:1004F000FF9348E251E064E271E080E09DDEFF910D
:10050000EF91BF91AF919F918F917F916F915F918B
:100510004F913F912F910F900BBE0F900FBE0F90F8
:100520001F901895089554D0FDDF84DEC0E0D0E020
:1005300082DE2097E9F30E940000FACF1F920F920B
:100540000FB60F9211242F933F938F939F93AF93E6
:10055000BF938091960290919702A0919802B091DA
:1005600099023091950223E0230F2D3720F4019654
:10057000A11DB11D05C026E8230F0296A11DB11DC6
:10058000209395028093960290939702A0939802ED
:10059000B093990280919A0290919B02A0919C0243
:1005A000B0919D020196A11DB11D80939A02909376
:1005B0009B02A0939C02B0939D02BF91AF919F912B
:1005C0008F913F912F910F900FBE0F901F90189514
:1005D000789484B5826084BD84B5816084BD85B51E
:1005E000826085BD85B5816085BDEEE6F0E08081E5
:1005F00081608083E1E8F0E0108280818260808306
:10060000808181608083E0E8F0E080818160808388
:10061000E1EBF0E0808184608083E0EBF0E08081BA
:1006200081608083E1E9F0E0808182608083808165
:1006300081608083E0E9F0E0808181608083E1EA8D
:10064000F0E0808182608083808181608083E0EA45
:10065000F0E0808181608083E1E2F1E0808182606E
:100660008083808181608083E0E2F1E0808181602D
:100670008083EAE7F0E0808184608083808182600B
:1006800080838081816080838081806880831092F4
:10069000C100089590E0FC013197E231F10508F0C6
:1006A0004DC08827EE58FF4F8F4F77C08091800054
:1006B0008F7703C0809180008F7D809380000895A4
:1006C00080918000877FF9CF84B58F7702C084B591
:1006D0008F7D84BD08958091B0008F7703C0809195
:1006E000B0008F7D8093B0000895809190008F7747
:1006F00007C0809190008F7D03C080919000877F1C
:100700008093900008958091A0008F7707C080911A
:10071000A0008F7D03C08091A000877F8093A00000
:100720000895809120018F7707C0809120018F7DEF
:1007300003C080912001877F8093200108951F933B
:10074000CF93DF93282F30E0F901E85FFE4F8491CB
:10075000F901E25BFE4FD491F901EC56FE4FC491D2
:10076000CC23B9F0162F811195DFEC2FF0E0EE0FBE
:10077000FF1FE652FE4FA591B4919FB7F894111157
:1007800004C08C91D095D82302C0EC91DE2BDC9371
:100790009FBFDF91CF911F910895EE0FFF1F881F1C
:0E07A0008BBF0790F691E02D1994F894FFCFCF
:00000001FF
